{
  "contractName": "RxTokenSale",
  "abi": [
    {
      "constant": true,
      "inputs": [],
      "name": "tokenContract",
      "outputs": [
        {
          "name": "",
          "type": "address"
        }
      ],
      "payable": false,
      "stateMutability": "view",
      "type": "function"
    },
    {
      "constant": true,
      "inputs": [],
      "name": "tokenPrice",
      "outputs": [
        {
          "name": "",
          "type": "uint256"
        }
      ],
      "payable": false,
      "stateMutability": "view",
      "type": "function"
    },
    {
      "inputs": [
        {
          "name": "_tokenContract",
          "type": "address"
        },
        {
          "name": "_tokenPrice",
          "type": "uint256"
        }
      ],
      "payable": false,
      "stateMutability": "nonpayable",
      "type": "constructor"
    }
  ],
  "bytecode": "0x608060405264e8d4a5100060025534801561001957600080fd5b506040516040806102018339810180604052810190808051906020019092919080519060200190929190505050336000806101000a81548173ffffffffffffffffffffffffffffffffffffffff021916908373ffffffffffffffffffffffffffffffffffffffff16021790555081600160006101000a81548173ffffffffffffffffffffffffffffffffffffffff021916908373ffffffffffffffffffffffffffffffffffffffff160217905550806002819055505050610122806100df6000396000f3006080604052600436106049576000357c0100000000000000000000000000000000000000000000000000000000900463ffffffff16806355a373d614604e5780637ff9b5961460a2575b600080fd5b348015605957600080fd5b50606060ca565b604051808273ffffffffffffffffffffffffffffffffffffffff1673ffffffffffffffffffffffffffffffffffffffff16815260200191505060405180910390f35b34801560ad57600080fd5b5060b460f0565b6040518082815260200191505060405180910390f35b600160009054906101000a900473ffffffffffffffffffffffffffffffffffffffff1681565b600254815600a165627a7a723058208bd63853e9acdc503467705730d107a9b7d6e88c9e8324fc082ff2e4e363ebea0029",
  "source": "pragma solidity ^0.4.2;\r\nimport \"./RxToken.sol\";\r\n\r\ncontract RxTokenSale {\r\n    address admin;\r\n    RxToken public tokenContract;\r\n    uint256 public tokenPrice = 1000000000000; \r\n    constructor(RxToken _tokenContract, uint256 _tokenPrice) public {\r\n        // Assign an admin\r\n        admin = msg.sender;\r\n        // Token Contract\r\n        tokenContract = _tokenContract;\r\n        // Token Price\r\n        tokenPrice = _tokenPrice;\r\n    }\r\n}",
  "sourcePath": "C:\\Users\\Cavenet\\Documents\\GitHub\\Token_Sale\\contracts\\RxTokenSale.sol",
  "compiler": {
    "name": "solc",
    "version": "0.4.24+commit.e67f0147.Emscripten.clang"
  },
  "schemaVersion": "2.0.1",
  "updatedAt": "2018-09-13T18:01:10.647Z"
}